{
  "contractName": "ChainList",
  "abi": [
    {
      "constant": true,
      "inputs": [
        {
          "name": "",
          "type": "uint256"
        }
      ],
      "name": "articles",
      "outputs": [
        {
          "name": "id",
          "type": "uint256"
        },
        {
          "name": "seller",
          "type": "address"
        },
        {
          "name": "buyer",
          "type": "address"
        },
        {
          "name": "name",
          "type": "string"
        },
        {
          "name": "description",
          "type": "string"
        },
        {
          "name": "price",
          "type": "uint256"
        }
      ],
      "payable": false,
      "stateMutability": "view",
      "type": "function"
    },
    {
      "anonymous": false,
      "inputs": [
        {
          "indexed": true,
          "name": "id",
          "type": "uint256"
        },
        {
          "indexed": true,
          "name": "_seller",
          "type": "address"
        },
        {
          "indexed": false,
          "name": "_name",
          "type": "string"
        },
        {
          "indexed": false,
          "name": "_price",
          "type": "uint256"
        }
      ],
      "name": "sellArticleEvent",
      "type": "event"
    },
    {
      "anonymous": false,
      "inputs": [
        {
          "indexed": true,
          "name": "id",
          "type": "uint256"
        },
        {
          "indexed": true,
          "name": "_seller",
          "type": "address"
        },
        {
          "indexed": true,
          "name": "_buyer",
          "type": "address"
        },
        {
          "indexed": false,
          "name": "_name",
          "type": "string"
        },
        {
          "indexed": false,
          "name": "_price",
          "type": "uint256"
        }
      ],
      "name": "buyArticleEvent",
      "type": "event"
    },
    {
      "constant": false,
      "inputs": [
        {
          "name": "_name",
          "type": "string"
        },
        {
          "name": "_description",
          "type": "string"
        },
        {
          "name": "_price",
          "type": "uint256"
        }
      ],
      "name": "sellArticle",
      "outputs": [],
      "payable": false,
      "stateMutability": "nonpayable",
      "type": "function"
    },
    {
      "constant": true,
      "inputs": [],
      "name": "numberOfArticles",
      "outputs": [
        {
          "name": "",
          "type": "uint256"
        }
      ],
      "payable": false,
      "stateMutability": "view",
      "type": "function"
    },
    {
      "constant": true,
      "inputs": [],
      "name": "getArticlesForSale",
      "outputs": [
        {
          "name": "",
          "type": "uint256[]"
        }
      ],
      "payable": false,
      "stateMutability": "view",
      "type": "function"
    },
    {
      "constant": false,
      "inputs": [
        {
          "name": "_id",
          "type": "uint256"
        }
      ],
      "name": "buyArticle",
      "outputs": [],
      "payable": true,
      "stateMutability": "payable",
      "type": "function"
    },
    {
      "constant": false,
      "inputs": [],
      "name": "resetArticles",
      "outputs": [],
      "payable": false,
      "stateMutability": "nonpayable",
      "type": "function"
    }
  ],
  "bytecode": "0x6060604052341561000f57600080fd5b6109ea8061001e6000396000f300606060405260043610610078576000357c0100000000000000000000000000000000000000000000000000000000900463ffffffff1680631cc4baa81461007d5780637f6be3da1461009557806386e447a3146100ff578063d260951514610128578063ebcc7699146101d1578063edcfafe6146101e6575b600080fd5b610093600480803590602001909190505061039c565b005b34156100a057600080fd5b6100a86103df565b6040518080602001828103825283818151815260200191508051906020019060200280838360005b838110156100eb5780820151818401526020810190506100d0565b505050509050019250505060405180910390f35b341561010a57600080fd5b610112610559565b6040518082815260200191505060405180910390f35b341561013357600080fd5b6101cf600480803590602001908201803590602001908080601f0160208091040260200160405190810160405280939291908181526020018383808284378201915050505050509190803590602001908201803590602001908080601f01602080910402602001604051908101604052809392919081815260200183838082843782019150505050505091908035906020019091905050610563565b005b34156101dc57600080fd5b6101e4610788565b005b34156101f157600080fd5b6102076004808035906020019091905050610843565b604051808781526020018673ffffffffffffffffffffffffffffffffffffffff1673ffffffffffffffffffffffffffffffffffffffff1681526020018573ffffffffffffffffffffffffffffffffffffffff1673ffffffffffffffffffffffffffffffffffffffff16815260200180602001806020018481526020018381038352868181546001816001161561010002031660029004815260200191508054600181600116156101000203166002900480156103045780601f106102d957610100808354040283529160200191610304565b820191906000526020600020905b8154815290600101906020018083116102e757829003601f168201915b50508381038252858181546001816001161561010002031660029004815260200191508054600181600116156101000203166002900480156103875780601f1061035c57610100808354040283529160200191610387565b820191906000526020600020905b81548152906001019060200180831161036a57829003601f168201915b50509850505050505050505060405180910390f35b60008015156103aa57600080fd5b6103db565b8154815290600101906020018083116103af57829003601f168201915050935050505060405180910390a45b5050565b6103e76108bd565b6103ef6108bd565b6000806103fa6108bd565b60008060015411151561040c57600080fd5b60015460405180591061041c5750595b9080825280602002602001820160405250945060009350600192505b600154831115156104df57600080600085815260200190815260200160002060020160009054906101000a900473ffffffffffffffffffffffffffffffffffffffff1673ffffffffffffffffffffffffffffffffffffffff1614156104d2576000808481526020019081526020016000206000015485858151811015156104bb57fe5b906020019060200201818152505083806001019450505b8280600101935050610438565b836040518059106104ed5750595b90808252806020026020018201604052509150600090505b8381101561054e57848181518110151561051b57fe5b90602001906020020151828281518110151561053357fe5b90602001906020020181815250508080600101915050610505565b819550505050505090565b6000600154905090565b60016000815480929190600101919050555060c06040519081016040528060015481526020013373ffffffffffffffffffffffffffffffffffffffff168152602001600073ffffffffffffffffffffffffffffffffffffffff1681526020018481526020018381526020018281525060008060015481526020019081526020016000206000820151816000015560208201518160010160006101000a81548173ffffffffffffffffffffffffffffffffffffffff021916908373ffffffffffffffffffffffffffffffffffffffff16021790555060408201518160020160006101000a81548173ffffffffffffffffffffffffffffffffffffffff021916908373ffffffffffffffffffffffffffffffffffffffff160217905550606082015181600301908051906020019061069a9291906108d1565b5060808201518160040190805190602001906106b79291906108d1565b5060a082015181600501559050503373ffffffffffffffffffffffffffffffffffffffff166001547fe6dcabaf37bca305551877dc9bc2cb6019fbb7859c0f74c037077d948fb17c5685846040518080602001838152602001828103825284818151815260200191508051906020019080838360005b8381101561074857808201518184015260208101905061072d565b50505050905090810190601f1680156107755780820380516001836020036101000a031916815260200191505b50935050505060405180910390a3505050565b60008090505b600154811015610838576000808281526020019081526020016000206000808201600090556001820160006101000a81549073ffffffffffffffffffffffffffffffffffffffff02191690556002820160006101000a81549073ffffffffffffffffffffffffffffffffffffffff02191690556003820160006108119190610951565b6004820160006108219190610951565b60058201600090555050808060010191505061078e565b600060018190555050565b60006020528060005260406000206000915090508060000154908060010160009054906101000a900473ffffffffffffffffffffffffffffffffffffffff16908060020160009054906101000a900473ffffffffffffffffffffffffffffffffffffffff1690806003019080600401908060050154905086565b602060405190810160405280600081525090565b828054600181600116156101000203166002900490600052602060002090601f016020900481019282601f1061091257805160ff1916838001178555610940565b82800160010185558215610940579182015b8281111561093f578251825591602001919060010190610924565b5b50905061094d9190610999565b5090565b50805460018160011615610100020316600290046000825580601f106109775750610996565b601f0160209004906000526020600020908101906109959190610999565b5b50565b6109bb91905b808211156109b757600081600090555060010161099f565b5090565b905600a165627a7a7230582057f75298bdcb7f342f030ee0ed9054c16280f06636873762f4be6369186c4a6e0029",
  "source": "pragma solidity ^0.4.11;\n\ncontract ChainList {\n  struct Article {\n    uint id;\n    address seller;\n    address buyer;\n    string name;\n    string description;\n    uint256 price;\n  }\n\n  mapping(uint => Article) public articles;\n\n  uint articleCounter;\n\n  event sellArticleEvent(\n    uint indexed id,\n    address indexed _seller,\n    string _name,\n    uint256 _price\n  );\n\n  event buyArticleEvent(\n    uint indexed id,\n    address indexed _seller,\n    address indexed _buyer,\n    string _name,\n    uint256 _price\n  );\n\n  function sellArticle(\n    string _name,\n    string _description,\n    uint256 _price\n  ) public {\n    articleCounter++;\n\n    articles[articleCounter] = Article(\n      articleCounter,\n       msg.sender,\n       0x0,\n       _name,\n       _description,\n       _price\n    );\n\n    sellArticleEvent(articleCounter,msg.sender, _name, _price);\n  }\n\n  function numberOfArticles() public constant returns (uint) {\n    return articleCounter;\n  }\n\n  function getArticlesForSale() public constant returns (uint[]) {\n    require(articleCounter > 0);\n\n    uint[] memory articleIds = new uint[](articleCounter);\n\n    uint numberOfArticlesForSale = 0;\n    for (uint i = 1; i <= articleCounter; i++) {\n      if (articles[i].buyer == 0x0) {\n        articleIds[numberOfArticlesForSale] = articles[i].id;\n        numberOfArticlesForSale++;\n      }\n    }\n\n    uint[] memory forSale = new uint[](numberOfArticlesForSale);\n    for (uint j = 0; j < numberOfArticlesForSale; j++) {\n      forSale[j] = articleIds[j];\n    }\n\n    return (forSale);\n  }\n\n  function buyArticle(uint _id) public payable {\n    return\n    require(false);\n    require(articleCounter > 0);\n\n    require(_id > 0 && _id <= articleCounter);\n\n    Article storage article = articles[_id];\n\n    require(article.seller != 0x0);\n\n    require(article.buyer == 0x0);\n\n    require(msg.sender != article.seller);\n\n    require(msg.value == article.price);\n\n    article.buyer = msg.sender;\n\n    article.seller.transfer(msg.value);\n\n    buyArticleEvent(_id, article.seller, article.buyer, article.name,\n                    article.price);\n  }\n\n  function resetArticles() public {\n    for(uint i = 0; i < articleCounter; i++) {\n      delete articles[i];\n    }\n    articleCounter = 0;\n  }\n}\n",
  "sourcePath": "/Users/qexx/code/ethereum/ChainSkills/Training/chainlist/contracts/ChainList.sol",
  "compiler": {
    "name": "solc",
    "version": "0.4.19+commit.c4cbbb05.Emscripten.clang"
  },
  "schemaVersion": "1.0.1",
  "updatedAt": "2018-02-13T00:36:18.552Z"
}